:03000000C3000139
:03003800C3C2013F
:03006600C3C20111
:100080008101C201C201C201C201C201C201C20199
:02009000C201AB
:10010000F33E00ED39363EF2ED393A3E11ED393825
:100110003E7EED393931FF20CD8B01ED563E00EDAD
:10012000473E80ED39333E02ED3934FB21C401CD29
:10013000A50121D801CDA501ED3895E603C630CD46
:10014000B501ED3894E60FC630CDB5013E3ACDB5D8
:1001500001ED3893E60FC630CDB501ED3892E60FCC
:10016000C630CDB5013E3ACDB501ED3891E60FC6AA
:1001700030CDB501ED3890E60FC630CDB501C332B4
:1001800001F5ED3880CDB501F1FBC93E64ED3901D3
:100190003E00ED39033E18ED39133E81ED391C3E2A
:1001A00006ED391DC9E5F57EF6002806CDB501231B
:1001B00018F5F1E1C9F5ED3805E60228F9F1ED3958
:1001C00007C9FBC91B5B324A1B5B4854657374202B
:1001D0005254430D0A0D0A001B5B481B5B3F32352E
:0201E0006800B5
:00000001FF
